S01500004C61626F7261746F72696F20342E737265633D
S11300000C9434000C943E000C943E000C943E007E
S11300100C943E000C943E000C943E000C943E0064
S11300200C943E000C943E000C943E000C943E0054
S11300300C943E000C943E000C943E000C943E0044
S11300400C943E000C943E000C943E000C943E0034
S11300500C943E000C943E000C943E000C943E0024
S11300600C943E000C943E0011241FBECFEFD8E048
S1130070DEBFCDBF0E949B000C945A010C9400007B
S1130080039F250D9949411F01090F931F932F9336
S1130090CF93DF93EF93FF930DE304B900E90AB91B
S11300A0CC2714E6903011F4811720F0811B904086
S11300B0C395F8CFDD271AE0811718F0811BD3957B
S11300C0FBCF0C2F10E80E9475000D2F10E40E9446
S11300D07E00082F10E20E947500FF91EF91DF91DE
S11300E0CF912F911F910F910895E0E8F0E0E00F78
S11300F008F4F39504910E9488000895E0E8F0E084
S1130100E00F08F4F39504910E7F0E94880008958F
S11301100E949000012F0E9490005C9A5C980895C0
S113012028E05F98069510F0289801C0289A5F9AF5
S11301302A95B9F70895CF93DF93CDB7DEB72C97FF
S11301400FB6F894DEBF0FBECDBF8CE790E020E47D
S1130150FC0120838AE790E027E8FC0120831886CD
S11301601F8219821A821B821C821D822FC08AE779
S113017090E02AE730E0F90120812064FC0120832B
S113018000008AE790E0FC018081882F90E0807471
S11301909927892BB1F788E790E0FC018081918150
S11301A09C878B878B859C85CC01A0E0B0E029815E
S11301B03A814B815C81820F931FA41FB51F8983F1
S11301C09A83AB83BC838D818F5F8D838D818436CD
S11301D070F289819A81AB81BC8124E630E040E0F1
S11301E050E0BC01CD010E941E01DA01C9019A87C9
S11301F0898789859A859C0140E050E084EF91E0ED
S1130200DC010E944001DC01CB012FEF33E040E030
S113021050E0BC01CD010E941E01DA01C90198879A
S11302208F831E8207C08F8198850E9445008E812E
S11302308F5F8E838E818233B0F393CFA1E21A2E27
S1130240AA1BBB1BFD010DC0AA1FBB1FEE1FFF1F76
S1130250A217B307E407F50720F0A21BB30BE40BC6
S1130260F50B661F771F881F991F1A9469F760950D
S11302707095809590959B01AC01BD01CF010895C7
S11302800E944B01A59F900DB49F900DA49F800DDB
S1130290911D11240895A29FB001B39FC001A39F93
S11302A0700D811D1124911DB29F700D811D1124AB
S10B02B0911D0895F894FFCF9D
S9030000FC
