S01700004763634170706C69636174696F6E312E737265635B
S11300000C9434000C943E000C943E000C943E007E
S11300100C943E000C943E000C943E000C943E0064
S11300200C943E000C943E000C943E000C943E0054
S11300300C943E000C943E000C943E000C943E0044
S11300400C943E000C943E000C943E000C943E0034
S11300500C943E000C943E000C943E000C943E0024
S11300600C943E000C943E0011241FBECFEFD8E048
S1130070DEBFCDBF0E9440000C9459000C940000D8
S113008080E480937C0087E880937A0090E00EC03F
S1130090EAE7F0E080818064808380917A0086FDC5
S11300A0FCCF20917800309179009F5F943680F3E3
S10900B0EDCFF894FFCF30
S9030000FC
