:100000000C9434000C9449000C9449000C94490061
:100010000C9449000C9449000C9449000C9449003C
:100020000C9449000C9449000C9449000C9449002C
:100030000C9449000C9449000C9449000C9449001C
:100040000C9449000C9449000C9449000C9449000C
:100050000C9449000C9449000C9449000C944900FC
:100060000C9449000C94490011241FBECFEFD8E036
:10007000DEBFCDBF11E0A0E0B1E0ECE0F1E002C0F6
:1000800005900D92A630B107D9F70E9457000C9445
:1000900084000C9400002A95F1F700C02FEF3A95E8
:1000A000D1F700C02FEF3FEF4A95A9F708958CE3F1
:1000B00084B98FEF85B917B8E0910401F09105017B
:1000C000CFEFC083E0910201F0910301C083E09182
:1000D0000001F0910101D0E2D0830E944B008FEE2D
:1000E00085B9E0910401F0910501C083E09102011E
:1000F000F0910301C083E0910001F0910101D083F0
:0C0100000E944B00C5B9D8CFF894FFCF87
:06010C00140013001200B4
:00000001FF
